:100000000C945E000C9486000C9486000C94860080
:100010000C9486000C9486000C9486000C94860048
:100020000C9486000C9486000C9486000C94C702F5
:100030000C9486000C9486000C9486000C94860028
:100040000C94F9000C9486000C9486000C948600A5
:100050000C9486000C9486000C9486000C94860008
:100060000C94EF050C9486000000000700020100CC
:100070000003040600000000000000000102040864
:100080001020408001020408102001020408102002
:10009000040404040404040402020202020203032E
:1000A0000303030300000000250028002B000000CC
:1000B0000000240027002A00D300C30211241FBE21
:1000C000CFEFD8E0DEBFCDBF11E0A0E0B1E0ECE3C0
:1000D000FFE002C005900D92AE31B107D9F722E0E2
:1000E000AEE1B1E001C01D92AC31B207E1F710E022
:1000F000CCEBD0E004C02297FE010E948907C83BE8
:10010000D107C9F70E94C7010C941C070C9400008A
:100110000895609104017091050183E391E00E94CC
:10012000B7026BED70E083E391E00E94B90268E8EA
:1001300070E083E391E00E94BE0260910A01709139
:100140000B0187E291E00E941D04609122017091F1
:10015000230187E291E00E945604609106017091AC
:10016000070184E291E00E941D04609120017091DA
:10017000210184E291E00E94560460910C0170918B
:100180000D0187E291E00E94560460910801709190
:10019000090184E291E00C94560464E670E080E08A
:1001A00090E00C94660187E291E00E94830384E270
:1001B00091E00C948303CF93C1E083E391E00E942C
:1001C000D4010297A4F083E391E00E94DC018093C4
:1001D0001E01E0913301F09134010190F081E02D96
:1001E000682F83E391E00995C0931F01E6CFCF917B
:1001F00008951F920F920FB60F9211242F933F93E1
:100200008F939F93AF93BF9380912B0190912C017B
:10021000A0912D01B0912E0130912A0123E0230FEE
:100220002D3720F40196A11DB11D05C026E8230F2E
:100230000296A11DB11D20932A0180932B0190935A
:100240002C01A0932D01B0932E0180912F0190914C
:100250003001A0913101B09132010196A11DB11D73
:1002600080932F0190933001A0933101B09332011C
:10027000BF91AF919F918F913F912F910F900FBEA2
:100280000F901F9018953FB7F89480912F0190918F
:100290003001A0913101B091320126B5A89B05C073
:1002A0002F3F19F00196A11DB11D3FBF6627782F82
:1002B000892F9A2F620F711D811D911D42E0660FDB
:1002C000771F881F991F4A95D1F70895CF92DF9223
:1002D000EF92FF92CF93DF936B017C010E94430169
:1002E000EB01C114D104E104F10479F00E9443014F
:1002F0006C1B7D0B683E7340A0F381E0C81AD108E7
:10030000E108F108C851DC4FECCFDF91CF91FF90AD
:10031000EF90DF90CF900895789484B5826084BD8B
:1003200084B5816084BD85B5826085BD85B58160F9
:1003300085BDEEE6F0E0808181608083E1E8F0E059
:100340001082808182608083808181608083E0E888
:10035000F0E0808181608083E1EBF0E08081846067
:100360008083E0EBF0E0808181608083EAE7F0E069
:1003700080818460808380818260808380818160CD
:1003800080838081806880831092C10008950E94DC
:100390008C010E948900C0E0D0E00E94CD0020972F
:1003A000E1F30E940000F9CF8091660190E0209176
:1003B0006701821B91090895209167018091660170
:1003C000281750F4E22FF0E0E859FE4F808190E0CA
:1003D0002F5F2093670108958FEF9FEF0895E091BD
:1003E000670180916601E81730F4F0E0E859FE4FAC
:1003F000808190E008958FEF9FEF08950895E09138
:100400003F01F09140013097E1F030916701209178
:1004100066013217B0F040E0242F30E0261737078E
:1004200054F4DC01A20FB31F5C91D901A859BE4F4F
:100430005C934F5FF1CF1092670160936601CB012F
:1004400009940895E0914101F0914201309729F01B
:10045000109245011092440109940895CF92DF92C1
:10046000EF92FF920F931F93CF93DF937C01CB0109
:100470008A0120914301222389F0EB016B01C40E14
:10048000D51ECC15DD0569F06991D701ED91FC9180
:100490000190F081E02DC7010995F3CF642F0E94F0
:1004A000BC05C801DF91CF911F910F91FF90EF9094
:1004B000DF90CF900895CF93DF931F92CDB7DEB733
:1004C0006983209143012223D1F0209144012032FD
:1004D00040F021E030E0FC013383228380E090E0B3
:1004E00015C080914501E82FF0E0EA5BFE4F99814D
:1004F00090838F5F809345018093440105C061E044
:10050000CE0101960E94BC0581E090E00F90DF9142
:10051000CF910895FC011382128248EE53E060E00F
:1005200070E0448355836683778382E191E0918311
:100530008083089510926701109266011092450120
:10054000109244010C949A05CF93DF93EC01862F0F
:100550000E94B80582E292E00E94DA058FEF91E0F6
:100560000E94D505CE01DF91CF910C949A020C9494
:10057000A4027093400160933F010895709342017B
:1005800060934101089583E391E00C948A021F92E5
:100590000F920FB60F9211242F933F934F935F93B7
:1005A0006F937F938F939F93AF93BF93EF93FF933B
:1005B0008091890187FF05C0109285001092840008
:1005C0001AC020918901332727FD30958091880139
:1005D00090E0281739077CF480918901992787FDDD
:1005E0009095FC01EE0FFF1FE80FF91FE657FE4F35
:1005F000808186FD15C0809189018F5F809389017C
:1006000020918901332727FD30958091880190E062
:1006100028173907BCF4809189018C305CF112C035
:1006200080918901992787FD9095FC01EE0FFF1FAE
:10063000E80FF91FE657FE4F808160E08F730E943C
:100640001D05D9CF80918400909185000496803457
:100650009C4918F480E49CE905C080918400909145
:100660008500049690938900809388008FEF809393
:10067000890138C080918400909185002091890182
:10068000332727FD3095F901EE0FFF1FE20FF31F0F
:10069000E657FE4F21813281820F931F909389008C
:1006A0008093880080918901992787FD9095FC01AE
:1006B000EE0FFF1FE80FF91FE657FE4F808186FF00
:1006C00011C080918901992787FD9095FC01EE0F5B
:1006D000FF1FE80FF91FE657FE4F808161E08F731F
:1006E0000E941D05FF91EF91BF91AF919F918F9156
:1006F0007F916F915F914F913F912F910F900FBE1E
:100700000F901F901895209188012C30A0F431E0B3
:10071000320F30938801FC012083822F90E0FC018E
:10072000EE0FFF1FE80FF91FE657FE4F88EB9BE027
:100730009283818308952FEFFC0120830895DF9237
:10074000EF92FF920F931F93CF93DF93EC01D62E7E
:100750007A01890188818C3008F066C061E08D2DB6
:100760000E94E4048881A82FB0E0FD01EE0FFF1F76
:10077000EA0FFB1FE657FE4F2D2D2F739081907CC3
:10078000922B908360E272E06E197F0977FF02C0BE
:100790006D5F7F4F7595679575956795698340E6A1
:1007A00059E0401B510B57FF02C04D5F5F4F5595FD
:1007B0004795559547954A836CE00E942F079CE02A
:1007C000899FB001112420E030E0A901460F571F96
:1007D000FA01EE0FFF1FE40FF51FE657FE4F908161
:1007E00096FD16C02F5F3F4F2C30310571F78111F8
:1007F0000FC01092800082E08093810010928500EB
:1008000010928400B19A80916F00826080936F0093
:10081000888190E0FC01EE0FFF1FE80FF91FE657FB
:10082000FE4F8081806480838881DF91CF911F910A
:100830000F91FF90EF90DF90089520E639E040E2BD
:1008400052E00C949F03FC0180818C3070F5918103
:1008500028E830E0291B310997FD3395220F331F1B
:10086000220F331F621773077CF0928128E532E074
:10087000291B310997FD3395220F331F220F331F98
:10088000621773070CF49B014FB7F89490E0FC01DA
:10089000EE0FFF1FE80FF91FE657FE4F22503109F8
:1008A000220F331F328321834FBF08954F925F92EF
:1008B0006F927F92AF92BF92CF92DF92EF92FF92B0
:1008C0000F931F93CF93DF93EC01603282E07807A0
:1008D0000CF040C077FD06C0653B71052CF064EB61
:1008E00070E002C060E070E0898128E830E0281BF9
:1008F000310987FD3395220F331F220F331F590112
:10090000CC24B7FCC094DC2C882777FD8095982FE9
:100910002A8148E552E0421B510927FD5395440FB7
:10092000551F440F551F2A01662457FC6094762CEE
:100930007F926F925F924F9214EBE12EF12C00E0C8
:1009400010E020E030E0A9010E9453050F900F90C5
:100950000F900F90CE01DF91CF911F910F91FF90DB
:10096000EF90DF90CF90BF90AF907F906F905F90AF
:100970004F900C942304833081F028F4813099F057
:100980008230A1F008958630A9F08730B9F0843024
:10099000D1F4809180008F7D03C0809180008F779B
:1009A00080938000089584B58F7702C084B58F7DD1
:1009B00084BD08958091B0008F7703C08091B0000E
:1009C0008F7D8093B0000895CF93DF9390E0FC017A
:1009D000E458FF4F2491FC01E057FF4F8491882396
:1009E00049F190E0880F991FFC01E255FF4FA59156
:1009F000B4918C559F4FFC01C591D4919FB7611163
:100A000008C0F8948C91209582238C93888182234E
:100A10000AC0623051F4F8948C91322F30958323C0
:100A20008C938881822B888304C0F8948C91822BCC
:100A30008C939FBFDF91CF9108950F931F93CF9316
:100A4000DF931F92CDB7DEB7282F30E0F901E859C8
:100A5000FF4F8491F901E458FF4F1491F901E057D9
:100A6000FF4F04910023C9F0882321F069830E947D
:100A7000BB046981E02FF0E0EE0FFF1FEC55FF4F44
:100A8000A591B4919FB7F8948C91611103C0109512
:100A9000812301C0812B8C939FBF0F90DF91CF9159
:100AA0001F910F9108954F925F926F927F92AF9234
:100AB000BF92CF92DF92EF92FF920F931F93CF934B
:100AC000DF93CDB7DEB729013A01621B730B840BAC
:100AD000950B29893A894B895C892A193B094C096C
:100AE0005D09298B3A8B4B8B5C8B9B01AC0169892F
:100AF0007A898B899C890E941F07E418F5080609EA
:100B00001709A80197010E945D072A0D3B1D4C1D86
:100B10005D1DCA01B901DF91CF911F910F91FF9027
:100B2000EF90DF90CF90BF90AF907F906F905F90ED
:100B30004F90089510921B0281E080931902109249
:100B4000180261E082E10E941D0561E083E10E94DC
:100B50001D05E9EBF0E080818E7F808380818D7FB1
:100B6000808388E48093B80085E48093BC00089576
:100B7000880F8093BA000895613298F420911B0287
:100B8000243089F46093D001FC0182ED91E0DC0116
:100B90002A2F281B261718F421912D93F9CF80E0D6
:100BA000089581E0089582E008959093150280935E
:100BB000140208959093170280931602089585ED0C
:100BC0008093BC008091BC0084FDFCCF10921B027E
:100BD000089585EC8093BC0010921B0208951F922B
:100BE0000F920FB60F9211242F933F934F935F9361
:100BF0006F937F938F939F93AF93BF93EF93FF93E5
:100C00008091B900887F803609F49CC068F58832ED
:100C100009F45BC090F4803109F454C038F488239F
:100C200009F4F5C0883009F44DC0F5C0883109F4E5
:100C30004CC0803209F45DC0EEC0803409F468C055
:100C400048F4803309F455C0883309F0E4C0809338
:100C5000AE01A8C0803509F44FC0883509F45DC0E5
:100C6000883409F0D8C0D5C0883909F4C6C0A8F4C2
:100C7000883709F467C038F4883609F463C08037D0
:100C800009F460C0C8C0883809F4B7C0803909F4D5
:100C90005FC0803809F0BFC05BC0803B09F485C0ED
:100CA00038F4803A09F466C0883A09F47EC0B3C0CB
:100CB000803C09F4A6C0883C09F4A3C0883B09F431
:100CC00089C0A9C080911A0210C09091F30180914F
:100CD000F201981770F5E091F30181E08E0F809397
:100CE000F301F0E0EC50FE4F80818093BB0085EC77
:100CF00085C08093AE018DC0E091F30181E08E0F3D
:100D00008093F3018091BB00F0E0EC50FE4F8083B4
:100D10009091F3018091F2016DC0E091F30181E0C7
:100D20008E0F8093F3018091BB00F0E0EC50FE4FFA
:100D300080838091190281116CC081E08093180238
:100D400084EA60C083E080931B021092AF01CFCF92
:100D50008091AF01803208F050C0E091AF0181E096
:100D60008E0F8093AF018091BB00F0E0E055FE4F05
:100D70008083BDCF8091AF01803230F4E091AF012C
:100D8000F0E0E055FE4F10820E94DF056091AF0158
:100D900070E0E0911402F091150280EB91E009956A
:100DA0001092AF010E94E90536C084E080931B02D7
:100DB0001092D1011092D001E0911602F091170229
:100DC00009958091D001811105C081E08093D00107
:100DD0001092D201E091D10181E08E0F8093D10178
:100DE000F0E0EE52FE4F80818093BB009091D101E4
:100DF0008091D001981708F47ACF85E88093BC00E1
:100E00000AC085EC8093BC0010921B0204C01092B3
:100E1000AE010E94DF05FF91EF91BF91AF919F91CD
:100E20008F917F916F915F914F913F912F910F9093
:100E30000FBE0F901F901895F8940C949C07DB013F
:100E40008F939F930E947C07BF91AF91A29F800DCB
:100E5000911DA39F900DB29F900D11240895991B91
:100E600079E004C0991F961708F0961B881F7A95A1
:100E7000C9F780950895A1E21A2EAA1BBB1BFD019C
:100E80000DC0AA1FBB1FEE1FFF1FA217B307E40769
:100E9000F50720F0A21BB30BE40BF50B661F771FC1
:100EA000881F991F1A9469F76095709580959095A1
:100EB0009B01AC01BD01CF010895052E97FB1EF4E7
:100EC00000940E94740757FD07D00E943B0707FC5F
:100ED00003D04EF40C9474075095409530952195AD
:100EE0003F4F4F4F5F4F0895909580957095619556
:100EF0007F4F8F4F9F4F08950E948D07A59F900DA4
:100F0000B49F900DA49F800D911D11240895EE0FA4
:100F1000FF1F0590F491E02D0994A29FB001B39FAB
:100F2000C001A39F700D811D1124911DB29F700DF2
:0C0F3000811D1124911D0895F894FFCF3D
:100F3C0001000000090009005C000A005A000000D2
:0E0F4C0000005B022E02D401DC01EF01FE0169
:00000001FF
