:100000000C9460000C9488000C9488000C94880078
:100010000C9488000C9488000C9488000C94880040
:100020000C9488000C9488000C9488000C94880030
:100030000C9488000C9488000C9488000C94880020
:100040000C94BB020C9488000C940F070C9452077C
:100050000C9488000C9488000C9488000C94880000
:100060000C94BC0B0C9488000000000700020100F7
:100070000003040600000000000000000102040864
:100080001020408001020408102001020408102002
:10009000040404040404040402020202020203032E
:1000A0000303030300000000250028002B000000CC
:1000B0000000240027002A0034020E0853094602DB
:1000C00011241FBECFEFD8E0DEBFCDBF12E0A0E00D
:1000D000B1E0E2E6FAE102C005900D92A637B10761
:1000E000D9F724E0A6E7B2E001C01D92AA30B2071A
:1000F000E1F710E0CEEBD0E004C02297FE010E94B1
:10010000200DC83BD107C9F70E9470060C94E90C7A
:100110000C940000FF920F931F93CF93DF9366E13F
:1001200071E082E892E00E94450660E271E089E9B0
:1001300092E00E94AA0462E872E089E992E00E94DB
:10014000C704009186021091870201501109C0E096
:10015000D0E00C171D07F4F0BE0182E892E00E9487
:100160006E06F82EE0914303F09144030190F08174
:10017000E02D682F83E493E0099561E371E089E95C
:1001800092E00E94AA046F2D89E992E00E94EB049C
:100190002196DFCFDF91CF911F910F91FF900895AE
:1001A00086E792E00E94C00582E892E00E94C005C6
:1001B00089E892E00C94C00560E070E080910C0149
:1001C0000E94400360E0809106010E94010460E00B
:1001D00070E080910A010E94400361E08091080173
:1001E0000E94010468E471E089E992E00E94AA0497
:1001F00069E571E089E992E00E94D90410928102D8
:100200001092800210927F0210927E0281E0809311
:100210007D0208951F93CF93DF93182FEB018091F8
:100220000C010E944003BE0180910A010E9440031C
:10023000112391F161E0809106010E94010460E0C8
:10024000809108010E94010481E080938102109254
:10025000800268E671E089E992E00E94AA044AE01F
:1002600050E0BE0189E992E00E94A00560E771E0DC
:1002700089E992E00E94AA046AE771E089E992E0C4
:100280000E94AA044AE050E0BE0189E992E00E947F
:10029000A00562E871E031C060E0809106010E9433
:1002A000010461E0809108010E9401041092810222
:1002B00081E08093800268E671E089E992E00E9423
:1002C000AA044AE050E0BE0189E992E00E94A0053C
:1002D00060E571E089E992E00E94AA046AE771E0B2
:1002E00089E992E00E94AA044AE050E0BE0189E94F
:1002F00092E00E94A00561E671E089E992E00E9427
:10030000D90410927F0210927E0210927D02DF913A
:10031000CF911F9108951F93CF93DF93182FEB0177
:1003200080910C010E944003BE0180910A010E944D
:100330004003112391F160E0809106010E940104C5
:1003400060E0809108010E94010481E080937F02B7
:1003500010927E0268E671E089E992E00E94AA04A8
:100360004AE050E0BE0189E992E00E94A00560E504
:1003700071E089E992E00E94AA046AE771E089E9E4
:1003800092E00E94AA044AE050E0BE0189E992E0AE
:100390000E94A00562E871E031C061E08091060131
:1003A0000E94010461E0809108010E940104109202
:1003B0007F0281E080937E0268E671E089E992E045
:1003C0000E94AA044AE050E0BE0189E992E00E943E
:1003D000A00560E771E089E992E00E94AA046AE75B
:1003E00071E089E992E00E94AA044AE050E0BE016F
:1003F00089E992E00E94A00561E671E089E992E056
:100400000E94D904109281021092800210927D0203
:10041000DF91CF911F91089540E05BE460E070E0D0
:1004200089E992E00E948D0762ED71E089E992E02E
:100430000E94D90460910E0170910F0183E493E052
:100440000E9447096AE870E083E493E00E944E0945
:1004500068E472E083E493E00E9449096BEF71E085
:1004600089E992E00C94D90464E572E089E892E0AD
:100470000E942E0664E572E082E892E00E942E0659
:1004800062E072E086E792E00C942E060C94D000B5
:10049000CF93DF93EC0164E572E089E892E00E947B
:1004A00045066EE172E089E992E00E94D90468E3B2
:1004B00072E089E992E00E94AA044AE050E0BE019D
:1004C00089E992E00E94A80583E493E00E94640811
:1004D000892B89F083E493E00E946C08C82F65E4BF
:1004E00072E089E992E00E94AA046C2F89E992E007
:1004F0000E94EB04E9CFDF91CF91089589E992E062
:100500000E947D06892BB1F189E992E00E94A6063E
:100510008F3F71F1833791F02CF48136B1F084363E
:10052000D1F00895883721F18A37E1F0873711F546
:10053000609104017091050181E005C060910201A4
:100540007091030180E00C940A01609100017091A8
:10055000010181E005C0609100017091010180E01E
:100560000C948B0166E772E089E992E00C94C70471
:100570000C94DC0008951F920F920FB60F92112475
:100580002F933F938F939F93AF93BF93809191024B
:1005900090919202A0919302B091940230919002B6
:1005A00023E0230F2D3720F40196A11DB11D05C0B6
:1005B00026E8230F0296A11DB11D2093900280937F
:1005C000910290939202A0939302B093940280912F
:1005D000950290919602A0919702B091980201968F
:1005E000A11DB11D8093950290939602A09397024E
:1005F000B0939802BF91AF919F918F913F912F91AE
:100600000F900FBE0F901F901895789484B582605C
:1006100084BD84B5816084BD85B5826085BD85B5A6
:10062000816085BDEEE6F0E0808181608083E1E855
:10063000F0E010828081826080838081816080838D
:10064000E0E8F0E0808181608083E1EBF0E0808190
:1006500084608083E0EBF0E0808181608083EAE762
:10066000F0E08081846080838081826080838081EB
:10067000816080838081806880831092C1000895AA
:100680001F93CF93DF93182FEB0161E00E94C80303
:10069000209711F460E004C0CF3FD10539F461E048
:1006A000812FDF91CF911F910C940104E12FF0E095
:1006B000E859FF4FE491E330F9F048F4E130B9F044
:1006C000E230A1F584B5806284BDC8BD34C0E63097
:1006D000E9F0E73019F1E43049F58091800080625B
:1006E00080938000D0938B00C0938A0024C084B58F
:1006F000806884BDC7BD1FC08091800080688093E2
:100700008000D0938900C093880015C08091B0000C
:1007100080688093B000C093B3000DC08091B0009A
:1007200080628093B000C093B40005C0C038D1058A
:100730000CF0B5CFAFCFDF91CF911F9108958330EB
:1007400081F028F4813099F08230A1F0089586304C
:10075000A9F08730B9F08430D1F4809180008F7D8A
:1007600003C0809180008F7780938000089584B5C6
:100770008F7702C084B58F7D84BD08958091B000CD
:100780008F7703C08091B0008F7D8093B000089573
:10079000CF93DF9390E0FC01E458FF4F2491FC01DC
:1007A000E057FF4F8491882349F190E0880F991F0B
:1007B000FC01E255FF4FA591B4918C559F4FFC0170
:1007C000C591D4919FB7611108C0F8948C91209580
:1007D00082238C93888182230AC0623051F4F8947A
:1007E0008C91322F309583238C938881822B888340
:1007F00004C0F8948C91822B8C939FBFDF91CF9192
:1008000008950F931F93CF93DF931F92CDB7DEB759
:10081000282F30E0F901E859FF4F8491F901E4589D
:10082000FF4F1491F901E057FF4F04910023C9F0E5
:10083000882321F069830E949F036981E02FF0E003
:10084000EE0FFF1FEC55FF4FA591B4919FB7F894A1
:100850008C91611103C01095812301C0812B8C9371
:100860009FBF0F90DF91CF911F910F910895CF926D
:10087000DF92EF92FF920F931F93CF93DF936C0160
:100880007A01EB01E60EF71E00E010E0CE15DF0561
:1008900061F06991D601ED91FC910190F081E02D1C
:1008A000C6010995080F191FF1CFC801DF91CF913B
:1008B0001F910F91FF90EF90DF90CF9008956115F9
:1008C000710581F0DB010D900020E9F7AD01415089
:1008D0005109461B570BDC01ED91FC910280F3811D
:1008E000E02D099480E090E00895AF92BF92CF92FE
:1008F000DF92EF92FF920F931F93CF93DF937C01D0
:100900006B01C0E0D0E000E010E0D60114968D91BC
:100910009C911597C817D90788F4D701ED91FC91E0
:10092000A080B180BE01C6010E945D06682FC7018C
:10093000F5010995080F191F2196E7CFC801DF912E
:10094000CF911F910F91FF90EF90DF90CF90BF90CC
:10095000AF9008950C945F04DC01ED91FC9101903F
:10096000F081E02D09940F931F93CF93DF93EC0157
:100970006DE00E94AC048C016AE0CE010E94AC04E0
:10098000800F911FDF91CF911F910F9108950F93C9
:100990001F93CF93DF93EC010E9475048C01CE016D
:1009A0000E94B304800F911FDF91CF911F910F918F
:1009B00008950F931F93CF93DF93EC010E945F0480
:1009C0008C01CE010E94B304800F911FDF91CF9163
:1009D0001F910F9108950F931F93CF93DF93EC0115
:1009E0000E94AC048C01CE010E94B304800F911FC1
:1009F000DF91CF911F910F9108958F929F92AF92A7
:100A0000BF92CF92DF92EF92FF920F931F93CF93FB
:100A1000DF93CDB7DEB7A1970FB6F894DEBF0FBE58
:100A2000CDBF7C01C42EE52FCB01D22E19A221E02F
:100A30002D1510F02AE0D22E8E010F5D1F4F8D2C48
:100A4000912CA12CB12C6C2D7E2FA50194010E941C
:100A5000FC0C8C2DD29E80191124015011098A3072
:100A600014F4805D01C0895CF80180832115310593
:100A70004105510521F0C22EE32FCA01E4CFB80190
:100A8000C7010E945F04A1960FB6F894DEBF0FBEA7
:100A9000CDBFDF91CF911F910F91FF90EF90DF902D
:100AA000CF90BF90AF909F908F900895CF92DF929C
:100AB000EF92FF920F931F93CF93DF93EC016A01A4
:100AC0007B012115310579F4E881F9810190F081EC
:100AD000E02D642FDF91CF911F910F91FF90EF9048
:100AE000DF90CF9009942A303105E9F477FF1AC0DE
:100AF0006DE20E94AC048C0144275527BA014C19C1
:100B00005D096E097F092AE0CE010E94FD04800F75
:100B1000911FDF91CF911F910F91FF90EF90DF9088
:100B2000CF9008952AE0B701A601CE01DF91CF91C1
:100B30001F910F91FF90EF90DF90CF900C94FD04E8
:100B40009A01AB01662757FD6095762F0C945605E8
:100B50000F931F93CF93DF93EC019A01AB016627AC
:100B600057FD6095762F0E9456058C01CE010E949C
:100B7000B304800F911FDF91CF911F910F910895C2
:100B8000FC01808191810C94D80ACF93DF93EC0112
:100B900088819981009711F00E94D80A19821882E1
:100BA0001D821C821B821A82DF91CF9108950F93C0
:100BB0001F93CF93DF93EC018B016F5F7F4F888191
:100BC00099810E945709009731F0998388831B838C
:100BD0000A8381E001C080E0DF91CF911F910F91E6
:100BE0000895CF93DF93EC0188819981892B29F0B7
:100BF0008A819B818617970760F4CE010E94D705F2
:100C0000882341F08C819D81892B19F4E881F98139
:100C1000108281E0DF91CF910895EF92FF920F93C0
:100C20001F93CF93DF93EC017B018A01BA010E94ED
:100C3000F105811104C0CE010E94C50507C01D83C6
:100C40000C83B701888199810E94F50CCE01DF9158
:100C5000CF911F910F91FF90EF900895FC011182A9
:100C60001082138212821582148216826115710518
:100C700059F0FB0101900020E9F7AF014150510903
:100C8000461B570B0C940D060895CF93DF93EC0190
:100C90006115710561F0FB0101900020E9F7AF01DA
:100CA00041505109461B570B0E940D0602C00E947D
:100CB000C505CE01DF91CF910895FC0124813581D6
:100CC0006217730748F480819181009729F0FC0135
:100CD000E60FF71F8081089580E008950C945D066B
:100CE0000E9405030E940C02C9E4D7E00E947E0224
:100CF0002097E1F30E944907F9CFFC01248535854F
:100D0000F901E05CFF4F8081918132962081318131
:100D1000821B930B8F7399270895FC018485958519
:100D2000FC01E05CFF4F408151813296208131818E
:100D30004217530741F00190F081E02DE80FF91FB1
:100D4000808190E008958FEF9FEF0895FC018485E6
:100D50009585FC01E05CFF4F4081518132962081F6
:100D600031814217530779F0A081B181A80FB91FD3
:100D70008C91208131812F5F3F4F2F733327318337
:100D8000208390E008958FEF9FEF0895FC0181A1EB
:100D9000882329F0A489B5898C9186FFFBCF11A205
:100DA0000895CF93DF93FC0126853785D901A05C98
:100DB000BF4F8D919C91119701968F739927E901EF
:100DC000CE5BDF4F4881598184179507D9F30D9089
:100DD000BC91A02DA20FB31F6C93A685B785A05C14
:100DE000BF4F11969C938E93A689B7892C9181E071
:100DF00090E0078C02C0880F991F0A94E2F7282B15
:100E00002C9381E081A30488F589E02D80818064A2
:100E1000808381E090E0DF91CF91089508951F9243
:100E20000F920FB60F9211242F933F934F938F93EE
:100E30009F93EF93FF938091C00082FD1CC040916F
:100E4000C60080913F039091400301968F739927CC
:100E500020914103309142038217930771F0E09192
:100E60003F03F0914003E150FD4F408390934003D6
:100E700080933F0302C08091C600FF91EF919F9144
:100E80008F914F913F912F910F900FBE0F901F9018
:100E9000189589E992E00E947D06892B11F00C9447
:100EA0000E0708951F920F920FB60F9211242F93E1
:100EB0003F938F939F93EF93FF932091FB02309189
:100EC000FC028091FD029091FE022817390731F44F
:100ED0008091C1008F7D8093C10014C0E091FD021C
:100EE000F091FE02E554FD4F20818091FD0290912A
:100EF000FE0201968F7399279093FE028093FD0264
:100F00002093C600FF91EF919F918F913F912F9178
:100F10000F900FBE0F901F901895CF92DF92EF9217
:100F2000FF92CF93DF93EC016A017B01411581EEC3
:100F3000580761057105F9F0EC89FD8981E090E0C1
:100F400008A002C0880F991F0A94E2F7808360E02E
:100F500079E08DE390E0A70196010E94FC0C2150FE
:100F6000310941095109569547953795279521151E
:100F700080E1380798F0EC89FD89108260E874E818
:100F80008EE190E0A70196010E94FC0C21503109EE
:100F9000410951095695479537952795E889F9896B
:100FA0003083EA89FB89208319A2EE89FF89408179
:100FB00081E090E09C010C8C02C0220F331F0A9448
:100FC000E2F7422B4083EE89FF8940819C010D8C22
:100FD00002C0220F331F0A94E2F7422B4083EE89AE
:100FE000FF8940819C010E8C02C0220F331F0A949E
:100FF000E2F7422B4083EE89FF8920810F8C02C0EB
:10100000880F991F0A94E2F7809582238083DF91ED
:10101000CF91FF90EF90DF90CF90089510929C02B7
:1010200010929B0288EE93E0A0E0B0E080939D02D6
:1010300090939E02A0939F02B093A00289E592E054
:1010400090939A02809399028FEF92E09093A60278
:101050008093A5028BEB92E09093A8028093A70265
:1010600085EC90E09093AA028093A90284EC90E032
:101070009093AC028093AB0280EC90E09093AE0230
:101080008093AD0281EC90E09093B0028093AF0228
:1010900082EC90E09093B2028093B10286EC90E0F3
:1010A0009093B4028093B30284E08093B50283E00E
:1010B0008093B60287E08093B70285E08093B80200
:1010C00081E08093B90208958091760390E02091A9
:1010D0007703821B9109089520917703809176030D
:1010E000281750F4E22FF0E0E858FC4F808190E0A0
:1010F0002F5F2093770308958FEF9FEF0895E0917E
:10110000770380917603E81730F4F0E0E858FC4F5D
:10111000808190E008958FEF9FEF08950895E0910A
:101120004F03F09150033097E1F030917703209115
:1011300076033217B0F040E0242F30E0261737074F
:1011400054F4DC01A20FB31F5C91D901A858BC4F25
:101150005C934F5FF1CF1092770360937603CB01DE
:1011600009940895E0915103F0915203309729F0CA
:10117000109255031092540309940895CF92DF9270
:10118000EF92FF920F931F93CF93DF937C01CB01DC
:101190008A0120915303222389F0EB016B01C40ED5
:1011A000D51ECC15DD0569F06991D701ED91FC9153
:1011B0000190F081E02DC7010995F3CF642F0E94C3
:1011C000890BC801DF91CF911F910F91FF90EF9094
:1011D000DF90CF900895CF93DF931F92CDB7DEB706
:1011E0006983209153032223D1F0209154032032AC
:1011F00040F021E030E0FC013383228380E090E086
:1012000015C080915503E82FF0E0EA5AFC4F998110
:1012100090838F5F809355038093540305C061E0F2
:10122000CE0101960E94890B81E090E00F90DF9142
:10123000CF910895FC011382128248EE53E060E0E2
:1012400070E0448355836683778389E692E09183D7
:1012500080830895109277031092760310925503BD
:10126000109254030C94670BCF93DF93EC01862FFD
:101270000E94850B82EB98E00E94A70B8FE898E014
:101280000E94A20BCE01DF91CF910C942A090C94FD
:1012900034097093500360934F0308957093520381
:1012A00060935103089583E493E00C941A096F92BC
:1012B0007F928F929F92AF92BF92CF92DF92EF92E6
:1012C000FF920F931F93CF93DF93EC01CB012097F5
:1012D00081F4DF91CF911F910F91FF90EF90DF90FC
:1012E000CF90BF90AF909F908F907F906F900C9415
:1012F000400AFE01E60FF71F9E0122503109E21756
:10130000F30708F4ACC0D9010D911C911197061791
:101310001707B8F00530110508F49FC0A801445024
:1013200051094617570708F498C002501109061BC7
:10133000170B019311936D937C93CF010E94D80AF0
:101340008CC05B01A01AB10A4E01800E911EA091C3
:101350000804B0910904612C712C60E070E01097D2
:1013600009F449C0A815B905C9F5ED90FC9011978D
:10137000670142E0C40ED11CCA14DB0478F14701B6
:101380008A189B08640142E0C40ED11C1296BC90DE
:1013900012971396AC91B5E0CB16D10440F0B2820F
:1013A000A38391828082D9018D939C9309C00E5FA3
:1013B0001F4F0E0D1F1DF90111830083EB2DFA2F16
:1013C0006115710531F0DB011396FC93EE931297D2
:1013D00044C0F0930904E09308043FC06D917C91F0
:1013E00011976616770608F43B01BD0112960D9021
:1013F000BC91A02DB4CF60910604709107046815CC
:101400007905E9F468167906D0F4409110015091FD
:1014100011014115510541F44DB75EB760911401BA
:1014200070911501461B570BE417F507C0F4F093B4
:101430000704E0930604F901918380830EC00E94A3
:10144000400A7C01009759F0A801BE010E94EC0CF3
:10145000CE010E94D80AC70104C0CE0102C080E0BC
:1014600090E0DF91CF911F910F91FF90EF90DF906F
:10147000CF90BF90AF909F908F907F906F90089586
:10148000CF93DF938230910510F482E090E0E091F9
:101490000804F091090420E030E0A0E0B0E03097CB
:1014A00039F14081518148175907B8F04817590759
:1014B00071F482819381109729F013969C938E93F7
:1014C00012972CC0909309048093080427C021151B
:1014D000310531F04217530718F0A901DB0101C0B3
:1014E000EF019A01BD01DF010280F381E02DD7CF2A
:1014F00021153105F9F0281B390B2430310580F412
:101500008A819B816115710521F0FB0193838283A0
:1015100004C09093090480930804FE01329644C0ED
:10152000FE01E20FF31F8193919322503109398319
:1015300028833AC02091060430910704232B41F4FC
:101540002091120130911301309307042093060477
:1015500020911001309111012115310541F42DB771
:101560003EB74091140150911501241B350BE091B9
:101570000604F0910704E217F307A0F42E1B3F0BBB
:101580002817390778F0AC014E5F5F4F24173507F5
:1015900048F04E0F5F1F5093070440930604819359
:1015A000919302C0E0E0F0E0CF01DF91CF91089588
:1015B000CF93DF93009709F487C0FC013297138221
:1015C0001282C0910804D0910904209781F42081EF
:1015D0003181280F391F80910604909107048217EA
:1015E000930779F5F0930704E09306046DC0DE01DC
:1015F00020E030E0AE17BF0750F412964D915C9199
:1016000013979D014115510509F1DA01F3CFB38319
:10161000A28340815181840F951F8A179B0771F423
:101620008D919C911197840F951F029691838083D1
:1016300012968D919C911397938382832115310586
:1016400029F4F0930904E09308043EC0D9011396ED
:10165000FC93EE9312974D915D91A40FB51FEA177D
:10166000FB0779F480819181840F951F0296D9013F
:1016700011969C938E938281938113969C938E9363
:101680001297E0E0F0E08A819B81009719F0FE015B
:10169000EC01F9CFCE01029628813981820F931F88
:1016A00020910604309107042817390769F4309710
:1016B00029F4109209041092080402C013821282C5
:1016C000D0930704C0930604DF91CF910895109240
:1016D000050481E0809303041092020461E082E13A
:1016E0000E94010461E083E10E940104E9EBF0E063
:1016F00080818E7F808380818D7F808388E480934A
:10170000B80085E48093BC000895880F8093BA00E8
:101710000895613298F420910504243089F460938F
:10172000BA03FC018CEB93E0DC012A2F281B26175F
:1017300018F421912D93F9CF80E0089581E0089568
:1017400082E008959093FF038093FE0308959093A1
:10175000010480930004089585ED8093BC0080917E
:10176000BC0084FDFCCF10920504089585EC8093A5
:10177000BC001092050408951F920F920FB60F92AD
:1017800011242F933F934F935F936F937F938F9386
:101790009F93AF93BF93EF93FF938091B900887F9E
:1017A000803609F49CC068F5883209F45BC090F477
:1017B000803109F454C038F4882309F4F5C0883026
:1017C00009F44DC0F5C0883109F44CC0803209F4E9
:1017D0005DC0EEC0803409F468C048F4803309F479
:1017E00055C0883309F0E4C080939803A8C08035C1
:1017F00009F44FC0883509F45DC0883409F0D8C0B9
:10180000D5C0883909F4C6C0A8F4883709F467C080
:1018100038F4883609F463C0803709F460C0C8C062
:10182000883809F4B7C0803909F45FC0803809F0FE
:10183000BFC05BC0803B09F485C038F4803A09F42E
:1018400066C0883A09F47EC0B3C0803C09F4A6C0E3
:10185000883C09F4A3C0883B09F489C0A9C08091E1
:10186000040410C09091DD038091DC03981770F59B
:10187000E091DD0381E08E0F8093DD03F0E0E25222
:10188000FC4F80818093BB0085EC85C080939803DA
:101890008DC0E091DD0381E08E0F8093DD038091A8
:1018A000BB00F0E0E252FC4F80839091DD03809119
:1018B000DC036DC0E091DD0381E08E0F8093DD03DA
:1018C0008091BB00F0E0E252FC4F808380910304E2
:1018D00081116CC081E08093020484EA60C083E0DF
:1018E0008093050410929903CFCF809199038032A1
:1018F00008F050C0E091990381E08E0F8093990326
:101900008091BB00F0E0E656FC4F8083BDCF809114
:101910009903803230F4E0919903F0E0E656FC4FF1
:1019200010820E94AC0B6091990370E0E091FE037D
:10193000F091FF038AE993E00995109299030E94C0
:10194000B60B36C084E0809305041092BB0310925E
:10195000BA03E0910004F091010409958091BA0363
:10196000811105C081E08093BA031092BC03E0911D
:10197000BB0381E08E0F8093BB03F0E0E454FC4F87
:1019800080818093BB009091BB038091BA0398172C
:1019900008F47ACF85E88093BC000AC085EC809378
:1019A000BC001092050404C0109298030E94AC0B76
:1019B000FF91EF91BF91AF919F918F917F916F9127
:1019C0005F914F913F912F910F900FBE0F901F90FD
:1019D0001895F8940C94240DFB01DC0102C00190D1
:1019E0000D9241505040D8F70895FB01DC01019061
:1019F0000D920020E1F70895A1E21A2EAA1BBB1B4D
:101A0000FD010DC0AA1FBB1FEE1FFF1FA217B307CA
:101A1000E407F50720F0A21BB30BE40BF50B661FE0
:101A2000771F881F991F1A9469F7609570958095A4
:101A300090959B01AC01BD01CF010895EE0FFF1FF2
:101A40000590F491E02D099410E0CEEBD0E004C0B5
:101A5000FE010E94200D2296C03CD107C9F7F894E0
:021A6000FFCFB6
:101A62009600FF00FF0008000700060005000800BE
:101A720000000A0480005465737469636C65730026
:101A820053656E64696E67207068726173653A208F
:101A920000436861726163746572206265696E6792
:101AA2002073656E743A20004D312053504420302B
:101AB2002C204C4F57207C20004D32205350442084
:101AC200302C2048494748004D31205350442000D3
:101AD2002C2048494748207C20004D322053504456
:101AE20020002C204C4F57004261636B2073656EBF
:101AF200736F72207175657269656400464C20735C
:101B0200656E736F72207175657269656400464611
:101B12002073656E736F72207175657269656400FA
:101B220046522073656E736F7220717565726965B6
:101B3200640053746172746564206D6F746F7220F7
:101B4200616E642064697374616E63652073656E8F
:101B5200736F7220626F61726421005265616479F1
:101B6200210048656C6C6F2C20746869732069735E
:101B72002061206D6573736167652E2E2E00536F91
:101B82006D657468696E6720726563656976656400
:101B9200206F6E20493243004279746520436F758D
:101BA2006E743A20006461746120726563656976BF
:101BB20065643A200000000000D10637047D06A6C5
:101BC200068D06C60600000000EB08BE0864086C1D
:061BD200087F088E0800E8
:00000001FF
